:100000000C9472000C949A000C949A000C949A0030
:100010000C949A000C949A000C949A000C949A00F8
:100020000C949A000C949A000C949A000C949A00E8
:100030000C949A000C949A000C949A000C949A00D8
:100040000C9425060C949A000C94F3050C94CD05A1
:100050000C949A000C949A000C949A000C949A00B8
:100060000C949A000C949A000000000024002700D1
:100070002A0000000000250028002B0000000008D6
:10008000000201000003040700000000000000005F
:10009000005EBCE2613FDD83C29C7E20A3FD1F4168
:1000A000009D23BE46DB65F88C11AF32CA57E97458
:1000B00000000000230026002900040404040404B6
:1000C0000404020202020202030303030303010207
:1000D00004081020408001020408102001020408D6
:1000E0001020B40611241FBECFEFD8E0DEBFCDBF75
:1000F00011E0A0E0B1E0E2EAFAE102C005900D9261
:10010000AE37B107D9F722E0AEE7B1E001C01D92EA
:10011000A635B207E1F710E0C2E7D0E004C02197AE
:10012000FE010E94440DC137D107C9F70E9449075B
:100130000C944F0D0C94000080913002E09131023C
:10014000F0913202F8949181982B91832281982F1B
:10015000909529232283A7E0B0E01197F1F7218140
:1001600092239183A3E2B0E01197F1F79081789404
:10017000EFECF0E03197F1F7982381E009F480E0AB
:10018000089590913002E0913102F0913202392FBE
:10019000309580FF13C0F8942281832F82238283BD
:1001A0008181892B8183A3E2B0E01197F1F78281ED
:1001B000982B9283789487ED90E012C0F894228176
:1001C000832F822382838181892B8183AFEFB0E0EB
:1001D0001197F1F78281982B928378948FE090E0C9
:1001E0000197F1F70895EF92FF920F931F93CF932A
:1001F000DF931F92CDB7DEB7082F88E0E82EF12CF1
:1002000011E081E0912F902309F480E069830E943E
:10021000C100110F81E0E81AF1086981E114F104CD
:1002200081F7611113C0F894E0913102F09132022C
:10023000918180913002809598239183E0913102E1
:10024000F091320292818923828378940F90DF911A
:10025000CF911F910F91FF90EF900895EF92FF9231
:100260000F931F93CF93DF931F92CDB7DEB7182F55
:1002700060E085E599830E94F300E12E9981F92ED3
:100280008701085F1F4F60E0F70181917F010E94A5
:10029000F300E016F106B9F70F90DF91CF911F91AF
:1002A0000F91FF90EF90089590913002E09131020C
:1002B000F0913202F8948181292F20958223818345
:1002C00078948DE743E050E0815021F1DA011197F5
:1002D000F1F730813923C1F3F8948281822382833C
:1002E0008181892B81837894ABE7B7E01197F1F78F
:1002F000F894818128232183A3E1B1E01197F1F7DC
:100300008081982381E009F080E07894E3E6F6E0CC
:100310003197F1F70895DC01ED91FC910190F081A6
:10032000E02D0994CF92DF92EF92FF920F931F93EB
:10033000CF93DF936C017A018B01C0E0D0E0CE1542
:10034000DF0589F0D8016D918D01D601ED91FC9109
:100350000190F081E02DC6010995892B11F47E01F1
:1003600002C02196ECCFC701DF91CF911F910F9171
:10037000FF90EF90DF90CF900895FC01538D448D56
:10038000252F30E0842F90E0821B930B541710F040
:10039000CF96089501970895FC01918D828D98174D
:1003A00061F0828DDF01A80FB11D5D968C91928D59
:1003B0009F5F9F73928F90E008958FEF9FEF089556
:1003C000FC01918D828D981731F0828DE80FF11D1F
:1003D000858D90E008958FEF9FEF0895FC01918D3A
:1003E000228D892F90E0805C9F4F821B91098F7333
:1003F0009927089583E991E00E94EE0121E0892B7D
:1004000009F420E0822F0895FC01848DDF01A80FFC
:10041000B11DA35ABF4F2C91848D90E001968F732C
:100420009927848FA689B7892C93A089B1898C914B
:1004300080648C93938D848D981306C00288F38911
:10044000E02D80818F7D80830895EF92FF920F933E
:100450001F93CF93DF93EC0181E0888F9B8D8C8D70
:10046000981305C0E889F989808185FD24C0F62E9E
:100470000B8D10E00F5F1F4F0F731127E02E8C8D37
:10048000E8120CC00FB607FCFACFE889F989808121
:1004900085FFF5CFCE010E940402F1CF8B8DFE01C6
:1004A000E80FF11DE35AFF4FF0820B8FEA89FB89B9
:1004B0008081806207C0EE89FF896083E889F989BD
:1004C00080818064808381E090E0DF91CF911F91F3
:1004D0000F91FF90EF900895CF93DF93EC01888DFB
:1004E0008823C9F0EA89FB89808185FD05C0A88938
:1004F000B9898C9186FD0FC00FB607FCF5CF8081BE
:1005000085FFF2CFA889B9898C9185FFEDCFCE0107
:100510000E940402E7CFDF91CF91089580E090E040
:10052000892B29F00E94FA0181110C940000089592
:1005300090E0FC01E458FF4F3491FC01E253FF4F7F
:100540002491FC01E654FF4FE491EE2309F43BC0F3
:10055000332339F1333091F038F43130A9F03230AF
:1005600001F584B58F7D12C0373091F03830A1F09D
:100570003430B9F4809180008F7D03C08091800079
:100580008F77809380000DC084B58F7784BD09C0BC
:100590008091B0008F7703C08091B0008F7D8093F1
:1005A000B000F0E0EE0FFF1FEE58FF4FA591B491A1
:1005B0008FB7F894EC91611103C020952E2301C0F0
:1005C0002E2B2C938FBF0895CF93DF9390E0FC01E7
:1005D000E253FF4F2491FC01E654FF4F849188239E
:1005E00061F190E0880F991FFC01E859FF4FC59118
:1005F000D491FC01EE58FF4FA591B491611109C04F
:100600009FB7F8948881209582238883EC912E23CC
:100610000BC0623061F49FB7F8943881822F8095C7
:1006200083238883EC912E2B2C939FBF06C08FB71A
:10063000F894E8812E2B28838FBFDF91CF91089506
:100640003FB7F8948091830190918401A091850136
:10065000B091860126B5A89B05C02F3F19F00196E1
:10066000A11DB11D3FBFBA2FA92F982F8827820F38
:10067000911DA11DB11DBC01CD0142E0660F771F88
:10068000881F991F4A95D1F70895CF93DF93EC0106
:1006900060E08E810E94980261E08E810E94980243
:1006A00060E08E810E9498028BE891E00197F1F75B
:1006B000DF91CF910895CF92DF92EF92FF920F9347
:1006C0001F93CF93DF937C016C0187E0C80ED11C90
:1006D000C0E0D0E0062F10E0B8010C2E02C07595E6
:1006E00067950A94E2F76170F60181916F010E94AB
:1006F00098022196C430D10579F7C701DF91CF91D7
:100700001F910F91FF90EF90DF90CF900C944503D5
:10071000CF92DF92EF92FF920F931F93CF93DF93CD
:10072000EC01F62E642F8C810E9498028D818F3F00
:1007300019F060E00E9498028F850F2D10E084FF71
:1007400025C06E0187E0C80ED11CE12CF12CB80148
:100750000E2C02C0759567950A94E2F76170F60158
:1007600081916F010E949802FFEFEF1AFF0A88E063
:10077000E816F10461F7CE01DF91CF911F910F913F
:10078000FF90EF90DF90CF900C944503B80184E088
:10079000759567958A95E1F7CE010E945B036F2DF1
:1007A000CE01DF91CF911F910F91FF90EF90DF90DD
:1007B000CF900C945B0341E00E94880381E090E0BD
:1007C000089540E00C948803EF92FF920F931F93DB
:1007D000CF93DF93EC01623018F08F8588608F87AC
:1007E0006B8B1C8A80E48D8B80E18E8B80E58F8BF8
:1007F00061E08C810E94E4028D818F3F19F061E0FD
:100800000E94E40261E08E810E94E4027E0187E0A2
:10081000E80EF11C00E010E08F8584FD03C084E049
:1008200090E002C088E090E0081719074CF461E0FE
:10083000F70181917F010E94E4020F5F1F4FECCF0F
:100840008BE39DE00197F1F760E08C810E949802B4
:1008500060E08E810E9498028D818F3F19F060E0E8
:100860000E9498026F8564FD1DC063E0CE010E9466
:100870005B030BE416E4C8010197F1F763E0CE01D6
:100880000E945B03C8010197F1F763E0CE010E946B
:100890005B0383E592E00197F1F762E0CE010E94ED
:1008A0005B0316C06062CE010E94E1038BE496E414
:1008B0000197F1F76F856062CE010E94E10383E545
:1008C00092E00197F1F76F856062CE010E94E1032B
:1008D0006F856062CE010E94E10384E0888B6CE04A
:1008E000CE010E94E10361E0CE010E94E1038BE3AF
:1008F0009FE10197F1F782E0898B66E0CE01DF91FD
:10090000CF911F910F91FF90EF900C94E103089508
:1009100080E090E008950E944A0D6115710579F01C
:10092000FB0101900020E9F73197AF01461B570BFF
:10093000DC01ED91FC910280F381E02D099480E0CF
:1009400090E008954F925F926F927F92EF92FF92A4
:100950000F931F93CF93DF93CDB7DEB7A1970FB659
:10096000F894DEBF0FBECDBF7C01FA01CB0119A206
:10097000223008F42AE08E010F5D1F4F422E512CC9
:10098000612C712CBF01A30192010E94220DF9017B
:10099000CA01015011096A3014F4605D01C0695C3C
:1009A000D8016C93232B242B252B61F7B801C701A9
:1009B0000E948D04A1960FB6F894DEBF0FBECDBF86
:1009C000DF91CF911F910F91FF90EF907F906F90EB
:1009D0005F904F9008954F925F926F927F928F92A7
:1009E0009F92AF92BF92CF92DF92EF92FF92CF93FE
:1009F000DF93EC016A017B01B22E9A01AB01C701C2
:100A0000B6010E94080D882319F06EE171E027C03D
:100A100026013701E89477F82FEF3FEF4FE75FE7C4
:100A2000C301B2010E94080D81110DC02FEF3FEFED
:100A30004FE75FE7C301B2010E94F10A18161CF4E8
:100A400062E271E00CC02FEF3FEF4FE75FE4C701B8
:100A5000B6010E94500C18169CF466E271E0CE01BB
:100A6000DF91CF91FF90EF90DF90CF90BF90AF904C
:100A70009F908F907F906F905F904F900C948D041B
:100A80002FEF3FEF4FE75FECC701B6010E94F10A7D
:100A900087FDE3CF20E030E0A901C701B6010E9445
:100AA000F10A87FF0AC06DE2CE010E948B014C0162
:100AB000F7FAF094F7F8F09402C0812C912CA12C55
:100AC00060E070E080E09FE3AB1441F020E030E0B4
:100AD00040E251E40E94F60AA394F6CF9B01AC01D8
:100AE000C701B6010E94850A2B013C010E946F0BD1
:100AF0006B017C010E949E0B9B01AC01C301B20102
:100B00000E94840A2B013C012AE0B701A601CE0114
:100B10000E94A2047C01E80CF91CBB2031F06EE2BB
:100B2000CE010E948B01E80EF91EDB2CDD2029F19D
:100B300020E030E040E251E4C301B2010E94550CD4
:100B40002B013C010E946F0B4B01A12CB12C2AE020
:100B5000B501A401CE010E94A204E80EF91EC50150
:100B6000B4010E949E0B9B01AC01C301B2010E9423
:100B7000840A2B013C01DA94D9CFC701DF91CF91D0
:100B8000FF90EF90DF90CF90BF90AF909F908F90AD
:100B90007F906F905F904F9008951F920F920FB6C5
:100BA0000F9211242F933F934F935F936F937F93F3
:100BB0008F939F93AF93BF93EF93FF9383E991E05C
:100BC0000E940402FF91EF91BF91AF919F918F918D
:100BD0007F916F915F914F913F912F910F900FBE39
:100BE0000F901F9018951F920F920FB60F9211241D
:100BF0002F938F939F93EF93FF93E091A301F09135
:100C0000A4018081E091A901F091AA0182FD12C0A6
:100C100090818091AC018F5F8F732091AD0182171D
:100C200051F0E091AC01F0E0ED56FE4F958F8093CE
:100C3000AC0101C08081FF91EF919F918F912F9125
:100C40000F900FBE0F901F9018951F920F920FB626
:100C50000F9211242F933F938F939F93AF93BF9342
:100C600080917F0190918001A0918101B0918201DA
:100C700030917E0123E0230F2D3720F40196A11D32
:100C8000B11D05C026E8230F0296A11DB11D2093BA
:100C90007E0180937F0190938001A0938101B093A6
:100CA00082018091830190918401A0918501B0918E
:100CB00086010196A11DB11D80938301909384014B
:100CC000A0938501B0938601BF91AF919F918F91C1
:100CD0003F912F910F900FBE0F901F901895CF92BC
:100CE000DF92EF92FF920F931F93E82FF92F05C029
:100CF000015011092109310961F19081962394175E
:100D0000B9F305C0015011092109310911F1908190
:100D100096239413F7CFC12CD12CE12CF12C0AC0CF
:100D20008FEFC81AD80AE80AF80A0C151D052E0517
:100D30003F0579F080818623841791F36C2D7D2DFA
:100D40008E2D9F2D1F910F91FF90EF90DF90CF90F0
:100D5000089560E070E080E090E01F910F91FF90B7
:100D6000EF90DF90CF900895109296011092950128
:100D700088EE93E0A0E0B0E0809397019093980113
:100D8000A0939901B0939A0184E091E0909394012B
:100D90008093930185EC90E09093A00180939F0154
:100DA00084EC90E09093A2018093A10180EC90E00C
:100DB0009093A4018093A30181EC90E09093A6010D
:100DC0008093A50182EC90E09093A8018093A70105
:100DD00086EC90E09093AA018093A9011092AC0157
:100DE0001092AD011092AE011092AF01109241022B
:100DF0001092400286E191E090933F0280933E0280
:100E000088E0809342028FEF8093430287E08093D3
:100E1000440286E08093450285E08093460284E0A8
:100E20008093470283E08093480210924902109217
:100E30004A0210924B0210924C0210924D0261E055
:100E40008EE392E00E94E40360E082E00E94E4020C
:100E5000E0EDF0E0E491E0933002ECEBF0E0E491BF
:100E6000F0E0EE0FFF1FE055FF4F859194919093B6
:100E700032028093310210923B0210923D02109296
:100E80003C02EBE3F2E0129282E0E333F807D9F799
:100E90000895CF93DF93CDB7DEB767970FB6F89479
:100EA000DEBF0FBECDBF789484B5826084BD84B5AB
:100EB000816084BD85B5826085BD85B5816085BD55
:100EC00080916E00816080936E001092810080910D
:100ED0008100826080938100809181008160809395
:100EE0008100809180008160809380008091B100BA
:100EF00084608093B1008091B00081608093B000E5
:100F000080917A00846080937A0080917A00826078
:100F100080937A0080917A00816080937A0080913A
:100F20007A00806880937A001092C10061E08CE0C2
:100F30000E94E40260E08DE00E94E40261E08BE048
:100F40000E94E40262E08EE392E00E94E403E091FA
:100F5000A301F091A40182E08083E0919F01F091D0
:100F6000A0011082E091A101F091A2018FEC808399
:100F70001092AB01E091A701F091A80186E0808377
:100F8000E091A501F091A601808180618083E091CC
:100F9000A501F091A601808188608083E091A50180
:100FA000F091A601808180688083E091A501F09195
:100FB000A60180818F7D80837E012DE0E20EF11CF1
:100FC0006E0185E1C80ED11C67E0362E3E0CFE0195
:100FD0003A96FE8BED8B80913D028111DEC00E941E
:100FE0005401882309F4D9C060E080EF0E94F30027
:100FF00001E0712C612C11E00E949C008F8B0E94FB
:101000009C009F89913019F48130C1F435C0272D9F
:1010100030E098131DC080913B02181738F4F90195
:10102000E05DFD4F8381802349F402C0181731F041
:1010300090E0193060F410933C0209C0E72DF0E015
:10104000E05DFD4F8381802B838391E009C0612E99
:10105000F901E05DFD4F2381802F809582238383FA
:10106000892F0E94C1001F5F000F11F4739401E0EB
:10107000F7E0F71508F0C0CF113408F48EC0609285
:101080003B02611003C081E080933D0280913302F6
:10109000882309F482C0A3E3B2E0F7018D91819324
:1010A000EC15FD05D9F7D701E0E03A1689F08D91EE
:1010B0008E27E82FEF70F0E0E057FF4F9491829574
:1010C0008F70E82FF0E0E056FF4FE491E927EDCF75
:1010D0008C89E81749F06AE271E083E991E00E94A7
:1010E0008D046CE371E007C08D85803149F0883252
:1010F00039F06FE371E083E991E00E948D045AC0FA
:101100000E945401C7010E942E0161E084E40E9404
:10111000F3000E945401C7010E942E0160E08EEB93
:101120000E94F300CE0101962C0158E0652E712C2F
:1011300001E010E00E949C008111102B000F91E053
:10114000691A7108B9F7F20111932F018D899E89EF
:10115000E817F90751F710923B0210923D021092E6
:101160003C02EBE3F2E0129292E0E333F907D9F7A5
:101170006A8170E0762F66278981682B072E000C24
:10118000880B990B0E94A00B20E030E040E85DE363
:101190000E94550C2B013C0113C010923B0210928F
:1011A0003D0210923C02EBE3F2E0129222E0E333C4
:1011B000F207D9F7412C512C3AE7632E34EC732E09
:1011C00061E08CE00E9498028BE99FE00197F1F7C3
:1011D00060E08CE00E94980220E030E848E853E4A8
:1011E000C301B2010E94F60A20E030E040E85FE36C
:1011F0000E94850A0E94C80C20E030E845EA53E4CA
:101200000E94550C20E030E44CE156E40E94F60ABE
:101210009B01AC0160938F017093900180939101C9
:101220009093920160E070E080E89FE30E94F60AEC
:1012300060938B0170938C0180938D0190938E014C
:10124000EBEDF0E06491E7ECF0E0E491F0E0EE0F1C
:10125000FF1FE055FF4F8591949100E412E42FE0C9
:1012600030E0462F0E946F066115710581059105DA
:1012700039F0DC01CB010196A11DB11DBF7003C087
:1012800080E090E0DC0190938A0180938901BC01A9
:1012900097FF02C06F5F7F4F75956795072E000C13
:1012A000880B990B0E94A00B20918B0130918C012F
:1012B00040918D0150918E010E94F60A0E94680BA8
:1012C0004B015C01709388016093870120E030E05E
:1012D00040E251E4C301B2010E94500C87FD15C0E9
:1012E00020E030E048EB51E4C301B2010E94F10A72
:1012F00087FF0BC0C40105970A9710F461E001C095
:1013000060E08BE00E9498022EC020E030E048EBC5
:1013100051E4C301B2010E94500C87FD0DC020E0D2
:1013200030E040EF51E4C301B2010E94F10A87FFAF
:1013300003C0C4010F97E0CF20E030E040EF51E45C
:10134000C301B2010E94500C87FD0DC020E030E0C7
:1013500044E352E4C301B2010E94F10A87FF03C0D3
:10136000C4014997C9CF68E571E083E991E00E9423
:101370008D0440918B0150918C0160918D01709191
:101380008E0122E083E991E00E94EB046CE371E0BE
:1013900083E991E00E948D0463E671E083E991E0C6
:1013A0000E948D0440918F015091900160919101B4
:1013B0007091920122E083E991E00E94EB046CE3DA
:1013C00071E083E991E00E948D0461E08EE392E098
:1013D0000E94E1030BE31FE1C8010197F1F762E00E
:1013E0008EE392E00E94E103C8010197F1F76CE6F9
:1013F00071E08EE392E00E948D04E1E08091510261
:101400008111E0E0E195F0E0E25CFD4F6489665F08
:1014100060688EE392E00E94E10322E0B301A20142
:101420008EE392E00E94EB04E0915102E23010F46E
:10143000E15001C0E1E0F0E0E25CFD4F64896068EA
:101440008EE392E00E94E10366E771E08EE392E0B2
:101450000E948D04E0915102E23010F4E15001C08D
:10146000E1E0F0E0E25CFD4F6489665F60688EE376
:1014700092E00E94E1034090870150908801052C82
:10148000000C6608770877FE0EC06DE28EE392E0EE
:101490000E948B0144275527BA0144195509660952
:1014A00077092AE003C02AE0B301A2018EE392E0AB
:1014B0000E94A2040E9420034B015C0188EE482E8A
:1014C00083E0582E612C712C0E942003DC01CB019B
:1014D00088199909AA09BB09883E9340A105B1055D
:1014E00058F0E1E04E1A510861087108F8EE8F0ECD
:1014F000F3E09F1EA11CB11C41145104610471044E
:1015000019F70E948E0267CD5058BB27AA270E9468
:101510009C0A0C94160C0E94080C38F00E940F0CC8
:1015200020F039F49F3F19F426F40C94050C0EF4C6
:10153000E095E7FB0C94FF0BE92F0E94270C58F372
:10154000BA17620773078407950720F079F4A6F5A8
:101550000C94490C0EF4E0950B2EBA2FA02D0B0124
:10156000B90190010C01CA01A0011124FF27591BE8
:1015700099F0593F50F4503E68F11A16F040A22FEE
:10158000232F342F4427585FF3CF4695379527955F
:10159000A795F0405395C9F77EF41F16BA0B620B5E
:1015A000730B840BBAF09150A1F0FF0FBB1F661FA5
:1015B000771F881FC2F70EC0BA0F621F731F841FE8
:1015C00048F4879577956795B795F7959E3F08F00E
:1015D000B0CF9395880F08F09927EE0F97958795D0
:1015E00008950E94DB0B08F481E008950E940A0B25
:1015F0000C94160C0E940F0C58F00E94080C40F03E
:1016000029F45F3F29F00C94FF0B51110C944A0C04
:101610000C94050C0E94270C68F39923B1F3552311
:1016200091F3951B550BBB27AA27621773078407F5
:1016300038F09F5F5F4F220F331F441FAA1FA9F38B
:1016400035D00E2E3AF0E0E832D091505040E69579
:10165000001CCAF72BD0FE2F29D0660F771F881FDA
:10166000BB1F261737074807AB07B0E809F0BB0BCD
:10167000802DBF01FF2793585F4F3AF09E3F5105E1
:1016800078F00C94FF0B0C944A0C5F3FE4F3983E07
:10169000D4F3869577956795B795F7959F5FC9F7CA
:1016A000880F911D9695879597F90895E1E0660F4B
:1016B000771F881FBB1F621773078407BA0720F0C4
:1016C000621B730B840BBA0BEE1F88F7E09508952D
:1016D0000E946F0B6894B1110C944A0C08950E94FB
:1016E0002F0C88F09F5798F0B92F9927B751B0F079
:1016F000E1F0660F771F881F991F1AF0BA95C9F796
:1017000014C0B13091F00E94490CB1E008950C94DE
:10171000490C672F782F8827B85F39F0B93FCCF391
:10172000869577956795B395D9F73EF49095809512
:10173000709561957F4F8F4F9F4F0895E89409C032
:1017400097FB3EF490958095709561957F4F8F4FF4
:101750009F4F9923A9F0F92F96E9BB279395F6950A
:10176000879577956795B795F111F8CFFAF4BB0F88
:1017700011F460FF1BC06F5F7F4F8F4F9F4F16C0EC
:10178000882311F096E911C0772321F09EE8872F76
:10179000762F05C0662371F096E8862F70E060E032
:1017A0002AF09A95660F771F881FDAF7880F9695AB
:1017B000879597F90895990F0008550FAA0BE0E84F
:1017C000FEEF16161706E807F907C0F01216130603
:1017D000E407F50798F0621B730B840B950B39F443
:1017E0000A2661F0232B242B252B21F408950A26A9
:1017F00009F4A140A6958FEF811D811D089597F9E9
:101800009F6780E870E060E008959FEF80EC0895A6
:1018100000240A94161617061806090608950024CF
:101820000A9412161306140605060895092E039449
:10183000000C11F4882352F0BB0F40F4BF2B11F4BD
:1018400060FF04C06F5F7F4F8F4F9F4F089557FD1C
:101850009058440F551F59F05F3F71F04795880F1E
:1018600097FB991F61F09F3F79F0879508951216B5
:1018700013061406551FF2CF4695F1DF08C0161661
:1018800017061806991FF1CF869571056105089412
:101890000895E894BB2766277727CB0197F9089529
:1018A0000E94DB0B08F48FEF08950E94680C0C94E3
:1018B000160C0E94080C38F00E940F0C20F09523A3
:1018C00011F00C94FF0B0C94050C11240C944A0C91
:1018D0000E94270C70F3959FC1F3950F50E0551FA0
:1018E000629FF001729FBB27F00DB11D639FAA2775
:1018F000F00DB11DAA1F649F6627B00DA11D661FC4
:10190000829F2227B00DA11D621F739FB00DA11DE4
:10191000621F839FA00D611D221F749F3327A00D9E
:10192000611D231F849F600D211D822F762F6A2F3A
:1019300011249F5750409AF0F1F088234AF0EE0F9F
:10194000FF1FBB1F661F771F881F91505040A9F7CC
:101950009E3F510580F00C94FF0B0C944A0C5F3FA6
:10196000E4F3983ED4F3869577956795B795F79508
:10197000E7959F5FC1F7FE2B880F911D9695879580
:1019800097F9089519F416F40C94050C0C940D0DA8
:101990000E942F0CB8F39923C9F3B6F39F57550B48
:1019A00087FF0E941B0D0024A0E640EA90018058AA
:1019B0005695979528F4805C660F771F881F20F056
:1019C00026173707480730F4621B730B840B202956
:1019D00031294A2BA69517940794202531254A27AB
:1019E00058F7660F771F881F20F02617370748071C
:1019F00030F4620B730B840B200D311D411DA0953B
:101A000081F7B901842F9158880F9695879508958D
:101A10000E94DB0B880B990B08959F3F31F091508A
:101A200020F4879577956795B795880F911D9695C2
:101A3000879597F9089591505040660F771F881F3A
:101A4000D2F70895A1E21A2EAA1BBB1BFD010DC0FF
:101A5000AA1FBB1FEE1FFF1FA217B307E407F5075E
:101A600020F0A21BB30BE40BF50B661F771F881F3A
:101A7000991F1A9469F760957095809590959B01D0
:101A8000AC01BD01CF010895EE0FFF1F0590F49149
:101A9000E02D099481E090E0F8940C944F0DF894B7
:021AA000FFCF76
:101AA2000000000025029201BD016C02EE01CC0192
:101AB200E00100000000DB039201880487046E61EC
:101AC2006E00696E66006F7666004352432069734A
:101AD200206E6F742076616C696421000D0A0044E7
:101AE2006576696365206973206E6F742072656321
:101AF2006F676E697A656400536963616B6C696BC9
:101B02003A20004D65736166653A2000536963614E
:0E1B12006B6C696B3D004D65736166653D004F
:107E0000112484B714BE81FFF0D085E080938100F7
:107E100082E08093C00088E18093C10086E0809377
:107E2000C20080E18093C4008EE0C9D0259A86E02C
:107E300020E33CEF91E0309385002093840096BBD3
:107E4000B09BFECF1D9AA8958150A9F7CC24DD24C4
:107E500088248394B5E0AB2EA1E19A2EF3E0BF2EE7
:107E6000A2D0813461F49FD0082FAFD0023811F036
:107E7000013811F484E001C083E08DD089C08234E0
:107E800011F484E103C0853419F485E0A6D080C0E4
:107E9000853579F488D0E82EFF2485D0082F10E0AE
:107EA000102F00270E291F29000F111F8ED06801E7
:107EB0006FC0863521F484E090D080E0DECF843638
:107EC00009F040C070D06FD0082F6DD080E0C81688
:107ED00080E7D80618F4F601B7BEE895C0E0D1E017
:107EE00062D089930C17E1F7F0E0CF16F0E7DF06D8
:107EF00018F0F601B7BEE89568D007B600FCFDCFD4
:107F0000A601A0E0B1E02C9130E011968C91119780
:107F100090E0982F8827822B932B1296FA010C0160
:107F200087BEE89511244E5F5F4FF1E0A038BF0790
:107F300051F7F601A7BEE89507B600FCFDCF97BE46
:107F4000E89526C08437B1F42ED02DD0F82E2BD052
:107F50003CD0F601EF2C8F010F5F1F4F84911BD097
:107F6000EA94F801C1F70894C11CD11CFA94CF0C13
:107F7000D11C0EC0853739F428D08EE10CD085E9AC
:107F80000AD08FE07ACF813511F488E018D01DD067
:107F900080E101D065CF982F8091C00085FFFCCF94
:107FA0009093C60008958091C00087FFFCCF809118
:107FB000C00084FD01C0A8958091C6000895E0E648
:107FC000F0E098E1908380830895EDDF803219F02E
:107FD00088E0F5DFFFCF84E1DECF1F93182FE3DFCA
:107FE0001150E9F7F2DF1F91089580E0E8DFEE27F6
:047FF000FF270994CA
:027FFE00040479
:0400000300007E007B
:00000001FF
